:100000000C94F5030C9421040C9421040C94210409
:100010000C9421040C9421040C9421040C942104CC
:100020000C9421040C9421040C9421040C942104BC
:100030000C9421040C9421040C9421040C942104AC
:100040000C9421040C9421040C9421040C9421049C
:100050000C9421040C9421040C9421040C94970A10
:100060000C9421040C94B10C0C94DD0D0C9421041F
:100070000C9421040C9421040C9421040C9421046C
:100080000C9421040C9421040C9421040C9421045C
:100090000C94EA0C0C941C0E0C9421040C94210476
:1000A0000C9421040C9421040C9421040C9421043C
:1000B0000C9421040C9421040C9421040C9421042C
:1000C0000C9421040C9421040C9421040C94230D11
:1000D0000C945B0E0C9421040C945C0D0C949A0E01
:1000E0000C94210400002100240027002A002D0088
:1000F0003000330001010000040107010A01000083
:100100002200250028002B002E00310034000201BF
:100110000000050108010B0100002000230026005B
:1001200029002C002F00320000010000030106010D
:10013000090105050505070508080808020202026D
:100140000A0A080804040404010101010101010173
:100150000303030303030303040707070C0C0C0C3E
:100160000C0C0C0C02020202060606060606060627
:100170000B0B0B0B0B0B0B0B0102102020080810B4
:100180002040102040800201020108040201010207
:1001900004081020408080402010080402018004E0
:1001A000020180402010080402010804020101023B
:1001B0000408102040800102040810204080000044
:1001C000090A02080B0C0D070603040100000000D9
:1001D000000000000000000000000000000000001F
:1001E0000000000000000000000011100F000000DF
:1001F00000000000000000000000000000000000FF
:100200000000000000000000003E5B4F5B3E3E6BC4
:100210004F6B3E1C3E7C3E1C183C7E3C181C577DA0
:10022000571C1C5E7F5E1C00183C1800FFE7C3E7EC
:10023000FF0018241800FFE7DBE7FF30483A060EFE
:100240002629792926407F050507407F05253F5A45
:100250003CE73C5A7F3E1C1C08081C1C3E7F1422B5
:100260007F22145F5F005F5F06097F017F00668960
:10027000956A606060606094A2FFA29408047E04A6
:100280000810207E201008082A1C08081C2A0808CC
:100290001E101010100C1E0C1E0C30383E3830068C
:1002A0000E3E0E06000000000000005F0000000788
:1002B000000700147F147F14242A7F2A12231308B6
:1002C000646236495620500008070300001C224192
:1002D000000041221C002A1C7F1C2A08083E080836
:1002E00000807030000808080808000060600020E6
:1002F000100804023E5149453E00427F40007249C9
:100300004949462141494D331814127F102745456C
:1003100045393C4A49493141211109073649494982
:1003200036464949291E00001400000040340000F0
:100330000008142241141414141400412214080259
:10034000015909063E415D594E7C1211127C7F49CC
:100350004949363E414141227F4141413E7F494921
:1003600049417F090909013E414151737F0808084D
:100370007F00417F41002040413F017F081422411E
:100380007F404040407F021C027F7F0408107F3E78
:100390004141413E7F090909063E4151215E7F09E5
:1003A000192946264949493203017F01033F40404C
:1003B000403F1F2040201F3F4038403F6314081437
:1003C0006303047804036159494D43007F4141416F
:1003D0000204081020004141417F04020102044050
:1003E00040404040000307080020545478407F28D4
:1003F0004444383844444428384444287F385454CA
:10040000541800087E090218A4A49C787F080404EC
:100410007800447D40002040403D007F102844008B
:1004200000417F40007C047804787C08040478381C
:1004300044444438FC1824241818242418FC7C084C
:10044000040408485454542404043F44243C4040C9
:10045000207C1C2040201C3C4030403C442810287C
:10046000444C9090907C4464544C440008364100C5
:100470000000770000004136080002010204023C3F
:100480002623263C1EA1A161123A4040207A38540E
:100490005455592155557941215454784121555489
:1004A000784020545579400C1E52721239555555DA
:1004B00059395454545939555454580000457C41C5
:1004C0000002457D420001457C40F0292429F0F0DE
:1004D000282528F07C545545002054547C547C0A2F
:1004E000097F4932494949323248484832324A48FC
:1004F00048303A4141217A3A42402078009DA0A0FC
:100500007D39444444393D4040403D3C24FF24244F
:10051000487E4943662B2FFC2F2BFF0929F620C06C
:10052000887E090320545479410000447D413048BD
:10053000484A32384040227A007A0A0A727D0D1900
:10054000317D2629292F28262929292630484D4062
:1005500020380808080808080808382F10C8ACBA5E
:100560002F102834FA00007B000008142A142222DD
:10057000142A1408AA005500AAAA55AA55AA0000D0
:1005800000FF00101010FF00141414FF001010FFE3
:1005900000FF1010F010F0141414FC001414F700F5
:1005A000FF0000FF00FF1414F404FC141417101FC4
:1005B00010101F101F1414141F00101010F0000052
:1005C00000001F101010101F10101010F01000006D
:1005D00000FF101010101010101010FF100000007D
:1005E000FF140000FF00FF00001F10170000FC04B4
:1005F000F414141710171414F404F40000FF00F797
:1006000014141414141414F700F7141414171410F9
:10061000101F101F141414F4141010F010F0000028
:100620001F101F0000001F14000000FC140000F049
:1006300010F01010FF10FF141414FF141010101FEE
:1006400000000000F010FFFFFFFFFFF0F0F0F0F0FF
:10065000FFFFFF0000000000FFFF0F0F0F0F0F381C
:10066000444438447C2A2A3E147E02020606027E56
:10067000027E0263554941633844443C04407E2075
:100680001E2006027E020299A5E7A5991C2A492A86
:100690001C4C7201724C304A4D4D30304878483015
:1006A000BC625A463D3E494949007E0101017E2A0D
:1006B0002A2A2A2A44445F444440514A4440404440
:1006C0004A51400000FF0103E080FF000008086B72
:1006D0006B083612362436060F090F06000018186C
:1006E0000000001010003040FF0101001F01011E3A
:1006F00000191D1712003C3C3C3C00000000000F9C
:100700000180961180FFB103012C2DB203012C2D25
:10071000B306012C2D012C2DB40107C003A20284C5
:10072000C101C5C2020A00C3028A2AC4028AEEC5F8
:10073000010E20003601C83A0105022A0400020019
:10074000812B04000100A0022A040000007F2B047A
:100750000000009F04E010021C07123732292D29E7
:10076000252B3900010310E110031D07062E2C294B
:100770002D2E2E373F0000021013800A29806412AC
:100780000180321180FF3A81050AB1830006030A15
:10079000360108B6021502B40100C08202700AC117
:1007A0000105C2020102C5823C380AFC021115E0B3
:1007B0001009160920211B131917151E2B040502F9
:1007C0000EE1900B14081E221D181E1B1A242B0666
:1007D00006020F0A2A04000200812B040002008195
:1007E00013800A2980FF5A04041011241FBECFEF82
:1007F000D1E2DEBFCDBF00E00CBF12E0A0E0B2E06E
:10080000E6E7F3E300E00BBF02C007900D92A43CC3
:10081000B107D9F71CE0A4ECB2E001C01D92A136EB
:10082000B107E1F717E0CAEED7E004C02297FE0156
:100830000E94B519C63ED107C9F70E9422110C9437
:100840002D190C94000081E090E090937D0280933C
:100850007C0290937F0280937E02089581309105FF
:1008600061F08230910519F428E030E008C0039768
:1008700019F420E130E003C0089524E030E0C9011C
:100880000895FC010190F081E02DE230F10519F4AA
:1008900021E030E00DC0E130F10519F422E030E054
:1008A00007C0EF2B19F020E030E002C023E030E079
:1008B000C901089584EC92E066E047E028E00E94D8
:1008C00063180895EF92FF920F931F938230910562
:1008D000C1F484EC92E060E370E042E650E02CE189
:1008E00030E00CE010E0AFE1EA2EF12C0E949A1209
:1008F00084EC92E060E370E046E750E028E230E00C
:100900001AC08130910521F584EC92E060E370E03B
:1009100046E750E028E230E00CE010E0FFE1EF2E87
:10092000F12C0E949A1284EC92E060E370E042E6BF
:1009300050E02CE130E0EE24FF240E949A1284EC77
:1009400092E060E370E04AE850E02EE130E025C03C
:10095000892B29F584EC92E060E370E04AE850E0EE
:100960002EE130E00CE010E0EFE1EE2EF12C0E94E1
:100970009A1284EC92E060E370E042E650E02CE1F1
:1009800030E0EE24FF240E949A1284EC92E060E3AF
:1009900070E046E750E028E230E00E949A121F9192
:1009A0000F91FF90EF900895AF92BF92CF92DF9298
:1009B000EF92FF920F931F93CF93DF936C0184EC20
:1009C00092E060E070E00E948F1684EC92E062E0BA
:1009D0000E94C31484EC92E068E270E044E150E0CD
:1009E0000E94BD1484EC92E060E072E00E949011DD
:1009F00084EC92E061E00E94C31484EC92E068E031
:100A000070E04CE350E00E94BD1484EC92E066E09C
:100A100072E00E94901184EC92E068E070E044E69D
:100A200050E00E94BD1484EC92E06CE172E00E9400
:100A3000901184EC92E068E070E048E750E00E949A
:100A4000BD1484EC92E066E272E00E94901184ECA6
:100A500092E065E070E042E650E024E430E00CE033
:100A600010E0AFE1EA2EF12C0E949A1284EC92E0A1
:100A700065E070E046E750E024E430E0EE24FF2437
:100A80000E949A1201E010E0FEECAF2EFFEFBF2EA5
:100A9000AC0CBD1CE601E2964CC081E00E94630AEA
:100AA0008A159B05ECF484EC92E065E070E042E688
:100AB00050E024E430E00CE010E0EFE1EE2EF12C09
:100AC0000E949A1284EC92E065E070E046E750E004
:100AD00024E430E0EE24FF240E949A1201E010E0AA
:100AE00081E00E94630AC817D907ECF484EC92E015
:100AF00065E070E046E750E024E430E00CE010E010
:100B0000BFE1EB2EF12C0E949A1284EC92E065E09A
:100B100070E042E650E024E430E0EE24FF240E943E
:100B20009A1202E010E068EC70E080E090E00E9431
:100B3000DF0A89E00E94800C892B09F0AECFC80142
:100B4000DF91CF911F910F91FF90EF90DF90CF90A9
:100B5000BF90AF900895AF92BF92CF92DF92EF9285
:100B6000FF920F931F93CF93DF938C017B01C1E022
:100B7000D0E08EECA82E8FEFB82EA60EB71EB2E3F3
:100B8000CB2ED12CC60ED71E43C081E00E94630A33
:100B90008A159B059CF4C230D10519F4C0E0D0E061
:100BA00001C02196F801C083D183CE010E94620466
:100BB0006CED70E080E090E00E94DF0A81E00E942E
:100BC000630A8E159F0561F4CE010E946204F8014C
:100BD000C083D1836CED70E080E090E00E94DF0A7A
:100BE00081E00E94630AC816D90694F4209719F48C
:100BF000C2E0D0E001C02197F801C083D183CE01CB
:100C00000E9462046CED70E080E090E00E94DF0AD8
:100C100089E00E94800C892B09F0B7CFDF91CF913A
:100C20001F910F91FF90EF90DF90CF90BF90AF900A
:100C300008950F931F9304EC12E0C8016FEF7FEF4C
:100C40000E948F16C80166E170E040E550E00E9406
:100C5000BD14C8016FE178EF0E94C914C80162E0B9
:100C60000E94C314C80161E372E00E94901183E006
:100C700090E01F910F9108950F931F9304EC12E0E1
:100C8000C8016FE178EF0E94C914C80161E00E94B9
:100C9000C314C80164E470E042E550E00E94BD1452
:100CA000C8016AE372E00E9490111F910F910895AC
:100CB0000F931F9304EC12E0C80160E070E00E9403
:100CC0008F16C80166E270E045E050E00E94BD1456
:100CD000C8016FE170E00E94C914C80161E00E9480
:100CE000C314C8016CE372E00E949311C80166E36B
:100CF00070E044E150E00E94BD14C80165E472E078
:100D00000E949311C80165E070E043E250E00E9448
:100D1000BD14C80162E00E94C314C8016AE472E015
:100D20000E949311C8016FE070E046E450E00E9419
:100D3000BD14C80160E00E94C314C8016FE170E0F7
:100D40000E94C914C80165E572E00E949011C801B3
:100D500062E370E044E650E00E94BD14C80160EE1A
:100D600077E00E94C914C80167E672E00E94901102
:100D7000C80162E370E048E750E00E94BD14C8017A
:100D800060EE7FEF0E94C914C8016CE672E00E9419
:100D90009011C80162E370E04CE850E00E94BD147D
:100DA000C80160E078EF0E94C914C80163E772E0EF
:100DB0000E9490111F910F9108958F929F92AF9270
:100DC000BF92CF92DF92EF92FF920F931F93CF9338
:100DD000DF938C01EB0184EC92E00E94CF1484EC51
:100DE00092E00E94D31425E0C22ED12CCC0EDD1E41
:100DF00095E0E92EF12CE00EF11E8090B409909060
:100E0000B509A090B609B090B709A2EFB2E060E0D2
:100E100070E05EC02D913C911197C217D30778F016
:100E200012968D919C9113978C179D0740F0149604
:100E30008D919C9115970817190709F454C0C21693
:100E4000D306B8F012968D919C9113978C159D0541
:100E500080F0C217D30768F08C179D0750F01496E6
:100E60008D919C911597E816F90618F08017910757
:100E7000D0F5208131810217130750F082819381D0
:100E80008017910728F084819581C817D90759F1F7
:100E9000E216F30698F0828193818E159F0570F01B
:100EA0000217130758F08017910740F0848195814D
:100EB000C816D90618F08C179D07A8F44F5F5F4F2E
:100EC00036964A155B0508F4A5CF6F5F7F4F1696DF
:100ED0006815790518F020E030E007C0E2EFF5E092
:100EE00040E050E0EECF21E030E0C901DF91CF914A
:100EF0001F910F91FF90EF90DF90CF90BF90AF9038
:100F00009F908F90089562E070E080E090E00E94F2
:100F1000A61122E030E040E050E00E949819CB0199
:100F200008952F923F924F925F926F927F928F928D
:100F30009F92AF92BF92CF92DF92EF92FF920F9368
:100F40001F93DF93CF9300D00F92CDB7DEB79A8374
:100F500089831B0184EC92E00E94CF146091B20956
:100F60007091B3090E9463192B0184EC92E00E94F6
:100F7000D3146091B2097091B3090E9463193B01C7
:100F80001092B5091092B4091092B7091092B609DF
:100F900084EC92E060E070E00E948F1684EC92E0B6
:100FA00060E070E040E050E020E830E000E010E079
:100FB000E12CF8EFFF2E0E94EE1184EC92E060E04D
:100FC00070E040E050E020E030E000EA10E00E94F5
:100FD000EE1184EC92E060E070E04FE950E02FE722
:100FE00030E00FE910E00E94EE1184EC92E06FE730
:100FF00070E040E050E02FE730E00E94EE11520137
:10100000882499248EC00E948307892B09F495C0F7
:101010008114910409F471C084EC92E00E94CF1411
:101020008816990609F469C084EC92E00E94CF14F6
:10103000841995098816990609F45FC084EC92E03A
:10104000B4014B815C8195018A01E12CE8EFFE2E11
:101050000E94EE118091B4099091B509FC01EE0F48
:10106000FF1FE80FF91FEE0FFF1F29813A81E20FE2
:10107000F31F91828082B382A282AB81BC81B5834F
:10108000A48301969093B5098093B40936C084EC8B
:1010900092E00E94D314C816D90679F184EC92E04C
:1010A0000E94D31486199709C816D90631F184EC29
:1010B00092E0B501A60195010B811C81E12CE8EFBE
:1010C000FE2E0E94EE118091B6099091B709FC01A5
:1010D000EE0FFF1FE80FF91FEE0FFF1FE20DF31DCC
:1010E000D182C0822B813C8133832283B582A4824A
:1010F00001969093B7098093B609C60CD71C8B81D3
:101100009C81860D971D9C838B8384EC92E00E94CA
:10111000D314C816D90608F476CF840C951CA40CF9
:10112000B51C84EC92E00E94CF148816990648F40E
:101130007C826B82CC24DD24E8CFC114D104E9F297
:10114000A6CF0F900F900F900F90CF91DF911F912E
:101150000F91FF90EF90DF90CF90BF90AF909F9056
:101160008F907F906F905F904F903F902F90089559
:101170008F929F92AF92BF92CF92DF92EF92FF92A7
:101180000F931F93CF93DF935C014B01EA01690139
:10119000009180021091810260917E0270917F0225
:1011A00040917C0250917D0284EC92E09801EE2403
:1011B000FF240E94AA16CE014497A816B9060CF582
:1011C00080917C0290917D02019790937D028093A3
:1011D0007C0260917E0270917F020E94DD06892B65
:1011E00031F480917C0290917D02892B51F481E051
:1011F00090E090937D0280937C0290937F02809395
:101200007E026496CA15DB0554F580917C029091AC
:101210007D02019690937D0280937C0260917E0214
:1012200070917F020E94DD06892B79F480EA90E0BC
:101230002091800230918102821B930B20917C02CD
:1012400030917D022817390751F481E090E09093A6
:101250007D0280937C0290937F0280937E02C60180
:1012600044978816990614F560917E0270917F026A
:101270006150704070937F0260937E0280917C0287
:1012800090917D020E94DD06892B31F480917E02CF
:1012900090917F02892B51F481E090E090937D0240
:1012A00080937C0290937F0280937E0284E190E0A1
:1012B000C80ED91EC814D9045CF560917E027091E5
:1012C0007F026F5F7F4F70937F0260937E028091F9
:1012D0007C0290917D020E94DD06892B79F480E8E2
:1012E00090E02091800230918102821B930B20912B
:1012F0007E0230917F022817390751F481E090E097
:1013000090937D0280937C0290937F0280937E0273
:10131000009180021091810260917E0270917F02A3
:1013200040917C0250917D0284EC92E09801A0EE05
:10133000EA2EA7E0FA2E0E94AA1668E270E080E08A
:1013400090E00E94DF0A80917E0290917F02825499
:101350009040069760F480917C0290917D028F54BA
:101360009040099720F40E9419069C0102C020E0D9
:1013700030E0C901DF91CF911F910F91FF90EF9065
:10138000DF90CF90BF90AF909F908F900895089579
:101390000F931F93CF93DF9385EE9BE040E855E2D8
:1013A00060E070E00E94D90E83E00E94630A0E9410
:1013B000C81189E062E00E949A0B81E00E94630AF2
:1013C0009093B9098093B80980E00E94630A9093D2
:1013D000BB098093BA0984EC92E062E00E94351860
:1013E00084EC92E060E070E00E948F160E94580644
:1013F0006091B8097091B9098091F0029091F10261
:101400000E94AB058091F0029091F1020E9441048C
:10141000EC0164E670E080E090E00E94DF0A209733
:1014200039F3CE010E942E049093B3098093B20940
:1014300082EF92E062EF75E00E9491070E943C0605
:101440001CC081E00E94630A8C0180E00E94630A54
:10145000BC014091B8095091B9092091BA09309165
:10146000BB09C8010E94B808039739F460EA7FE01D
:1014700080E090E00E94DF0A05C089E00E94800CB5
:10148000892BF9F664E670E080E090E00E94DF0AC4
:101490008091B8099091B9090E94D404EC010E948E
:1014A000230464E670E080E090E00E94DF0AC2302E
:1014B000D10509F4BDCF219709F492CFDF91CF91E7
:1014C0001F910F910895382F863308F036532091DD
:1014D0007B00832F86958695869590E0817090702D
:1014E00043E0880F991F4A95E1F7277F282B209327
:1014F0007B003770809182028295880F880F807CF4
:10150000832B80937C0080917A00806480937A00A2
:1015100080917A0086FDFCCF20917800409179007F
:10152000942F80E030E0282B392BC90108951F92B9
:101530000F920FB60F9211242F933F938F939F9387
:10154000AF93BF938091C0099091C109A091C20946
:10155000B091C3093091C4090196A11DB11D232F7B
:101560002D5F2D3720F02D570196A11DB11D209321
:10157000C4098093C0099093C109A093C209B09394
:10158000C3098091BC099091BD09A091BE09B09199
:10159000BF090196A11DB11D8093BC099093BD099F
:1015A000A093BE09B093BF09BF91AF919F918F9156
:1015B0003F912F910F900FBE0F901F9018959B0198
:1015C000AC017FB7F8948091BC099091BD09A091BE
:1015D000BE09B091BF0966B5A89B05C06F3F19F061
:1015E0000196A11DB11D7FBFBA2FA92F982F882763
:1015F000860F911DA11DB11D62E0880F991FAA1FC2
:10160000BB1F6A95D1F7BC012DC0FFB7F89480913C
:10161000BC099091BD09A091BE09B091BF09E6B582
:10162000A89B05C0EF3F19F00196A11DB11DFFBF9A
:10163000BA2FA92F982F88278E0F911DA11DB11D9C
:10164000E2E0880F991FAA1FBB1FEA95D1F7861BFE
:10165000970B885E9340C8F2215030404040504084
:1016600068517C4F211531054105510571F60895EA
:10167000789484B5826084BD84B5816084BD85B56D
:10168000826085BD85B5816085BDEEE6F0E0808134
:1016900081608083E1E8F0E0108280818260808355
:1016A000808181608083E0E8F0E0808181608083D8
:1016B000E1EBF0E0808184608083E0EBF0E080810A
:1016C00081608083E1E9F0E08081826080838081B5
:1016D00081608083E0E9F0E0808181608083E1EADD
:1016E000F0E0808182608083808181608083E0EA95
:1016F000F0E0808181608083E1E2F1E080818260BE
:101700008083808181608083E0E2F1E0808181607C
:101710008083EAE7F0E0808184608083808182605A
:101720008083808181608083808180688083109243
:10173000C1000895CF93DF93482F50E0CA01885825
:101740009E4FFC0134914E5C5E4FFA0184918823D8
:1017500069F190E0880F991FFC01EC51FF4FA591B2
:10176000B491FC01E250FF4FC591D491662351F42E
:101770002FB7F8948C91932F909589238C9388811F
:1017800089230BC0623061F42FB7F8948C91932FAA
:10179000909589238C938881832B88832FBF06C0E3
:1017A0009FB7F8948C91832B8C939FBFDF91CF913F
:1017B0000895893009F449C08A30A0F4843051F189
:1017C000853040F4823079F1833000F5813009F0C2
:1017D00063C026C0873079F1883098F5863009F0EB
:1017E0005BC025C08D3009F442C08E3028F48B30A8
:1017F000B1F18C30C0F52DC0803109F442C0813187
:1018000009F445C08F3009F047C037C0809180008F
:101810008F7703C0809180008F7D80938000089532
:1018200084B58F7702C084B58F7D84BD0895809183
:10183000B0008F7703C08091B0008F7D8093B0009F
:101840000895809190008F7707C0809190008F7DE0
:1018500003C080919000877F8093900008958091CD
:10186000A0008F7707C08091A0008F7D03C080917A
:10187000A000877F8093A0000895809120018F773A
:1018800003C0809120018F7D809320010895809175
:101890002001877F809320010895FF920F931F936B
:1018A000F62E482F50E0CA0182549E4FFC0124912D
:1018B000CA0188589E4FFC0114914E5C5E4FFA019C
:1018C00004910023C9F0222319F0822F0E94D90B22
:1018D000E02FF0E0EE0FFF1FE250FF4FA591B49113
:1018E0009FB7F894FF2021F48C911095812302C0BA
:1018F0008C91812B8C939FBF1F910F91FF90089526
:101900000F931F93482F50E0CA0182549E4FFC0151
:101910002491CA0188589E4FFC0104914E5C5E4F91
:10192000FA011491112319F420E030E015C02223AC
:1019300019F0822F0E94D90B812F90E0880F991FF8
:10194000885E9E4FFC01A591B4918C9120E030E01F
:10195000802311F021E030E0C9011F910F9108951B
:1019600008951F920F920FB60F920BB60F9211248B
:101970002F933F934F938F939F93EF93FF934091B8
:10198000C6002091050A3091060A2F5F3F4F2F7342
:1019900030708091070A9091080A2817390759F08A
:1019A000E091050AF091060AEB53F64F408330931D
:1019B000060A2093050AFF91EF919F918F914F9115
:1019C0003F912F910F900BBE0F900FBE0F901F9065
:1019D000189508951F920F920FB60F920BB60F92A3
:1019E00011242F933F934F938F939F93EF93FF93E4
:1019F0004091CE0020918D0A30918E0A2F5F3F4F8B
:101A00002F73307080918F0A9091900A28173907B0
:101A100059F0E0918D0AF0918E0AE35BF54F408317
:101A200030938E0A20938D0AFF91EF919F918F91B1
:101A30004F913F912F910F900BBE0F900FBE0F90C3
:101A40001F90189508951F920F920FB60F920BB624
:101A50000F9211242F933F934F938F939F93EF9364
:101A6000FF934091D6002091150B3091160B2F5FFC
:101A70003F4F2F7330708091170B9091180B2817E0
:101A8000390759F0E091150BF091160BEB52F54F19
:101A900040833093160B2093150BFF91EF919F918C
:101AA0008F914F913F912F910F900BBE0F900FBED2
:101AB0000F901F90189508951F920F920FB60F92D6
:101AC0000BB60F9211242F933F934F938F939F93B5
:101AD000EF93FF934091360120919D0B30919E0B27
:101AE0002F5F3F4F2F73307080919F0B9091A00B11
:101AF0002817390759F0E0919D0BF0919E0BE35A9E
:101B0000F44F408330939E0B20939D0BFF91EF91F8
:101B10009F918F914F913F912F910F900BBE0F90FE
:101B20000FBE0F901F901895E091F10BF091F20B02
:101B3000E05CFF4F8191919120813181821B930B59
:101B40008F739070892B11F00E94B00CE091100CF3
:101B5000F091110CE05CFF4F8191919120813181D6
:101B6000821B930B8F739070892B11F00E94E90CEC
:101B7000E0912F0CF091300CE05CFF4F819191913E
:101B800020813181821B930B8F739070892B11F010
:101B90000E94220DE0914E0CF0914F0CE05CFF4F43
:101BA0008191919120813181821B930B8F73907071
:101BB000892B11F00E945B0D08951F920F920FB6B2
:101BC0000F920BB60F9211242F933F938F939F93F5
:101BD000EF93FF932091490A30914A0A80914B0A72
:101BE00090914C0A2817390731F48091C1008F7DFC
:101BF0008093C10014C0E0914B0AF0914C0AE75F5A
:101C0000F54F208180914B0A90914C0A01968F7379
:101C1000907090934C0A80934B0A2093C600FF91DA
:101C2000EF919F918F913F912F910F900BBE0F904D
:101C30000FBE0F901F9018951F920F920FB60F9224
:101C40000BB60F9211242F933F938F939F93EF9393
:101C5000FF932091D10A3091D20A8091D30A9091BA
:101C6000D40A2817390731F48091C9008F7D8093F9
:101C7000C90014C0E091D30AF091D40AEF56F54F91
:101C800020818091D30A9091D40A01968F7390702D
:101C90009093D40A8093D30A2093CE00FF91EF91C2
:101CA0009F918F913F912F910F900BBE0F900FBE80
:101CB0000F901F9018951F920F920FB60F920BB6B0
:101CC0000F9211242F933F938F939F93EF93FF9342
:101CD0002091590B30915A0B80915B0B90915C0BCA
:101CE0002817390731F48091D1008F7D8093D1007E
:101CF00014C0E0915B0BF0915C0BE75EF44F208128
:101D000080915B0B90915C0B01968F739070909318
:101D10005C0B80935B0B2093D600FF91EF919F911A
:101D20008F913F912F910F900BBE0F900FBE0F9090
:101D30001F9018951F920F920FB60F920BB60F922D
:101D400011242F933F938F939F93EF93FF932091B1
:101D5000E10B3091E20B8091E30B9091E40B28179B
:101D6000390731F4809131018F7D8093310114C0A6
:101D7000E091E30BF091E40BEF55F44F208180915B
:101D8000E30B9091E40B01968F7390709093E40BAA
:101D90008093E30B20933601FF91EF919F918F91F8
:101DA0003F912F910F900BBE0F900FBE0F901F9081
:101DB0001895AF92BF92DF92EF92FF920F931F930D
:101DC000CF93DF93EC017A018B01DD24403081EE6B
:101DD000580780E0680780E0780711F0DD24D3948D
:101DE00091E0A92EB12CEC89FD89DD2069F0C501B7
:101DF0000E8C02C0880F991F0A94E2F7808360E07E
:101E000079E08DE390E005C0108260E874E88EE12F
:101E100090E0A80197010E9476192150304040407F
:101E20005040569547953795279580E120303807E3
:101E300020F0DD2011F0DD24D6CFE889F989308348
:101E4000EA89FB892083EE89FF89408121E030E027
:101E5000C9010A8C02C0880F991F0A94E2F7482B27
:101E60004083EE89FF894081C9010B8C02C0880F35
:101E7000991F0A94E2F7482B4083EE89FF8940813D
:101E8000C9010C8C02C0880F991F0A94E2F7482BF5
:101E90004083EE89FF8980810D8C02C0220F331FA1
:101EA0000A94E2F7209528232083DF91CF911F9198
:101EB0000F91FF90EF90DF90BF90AF900895DC01FD
:101EC0001C96ED91FC911D97E05CFF4F21913191A3
:101ED00080819181281B390B2F733070C9010895BF
:101EE000DC011C96ED91FC911D97E05CFF4F208179
:101EF0003181E054F040DF01AE5BBF4F8D919C918A
:101F000011972817390719F42FEF3FEF07C08D916C
:101F10009C91E80FF91F8081282F30E0C9010895B6
:101F2000DC011C96ED91FC911D97E05CFF4F208138
:101F30003181E054F040DF01AE5BBF4F8D919C9149
:101F400011972817390719F42FEF3FEF10C08D9123
:101F50009C911197E80FF91F20818D919C91119709
:101F600001968F73907011969C938E9330E0C90107
:101F70000895FC0186859785DC01A05CBF4FFC01BC
:101F8000EE5BFF4F2D913C91119780819181281735
:101F90003907C1F70895CF93DF93EC01EE85FF85F4
:101FA000E05CFF4F20813181E054F0402F5F3F4FD4
:101FB0002F733070DF01AE5BBF4F8D919C911197F5
:101FC00028173907D1F3E05CFF4F80819181E054FD
:101FD000F040E80FF91F6083EE85FF85E05CFF4F5E
:101FE00031832083EE89FF89208181E090E00D8C90
:101FF00002C0880F991F0A94E2F7282B208381E002
:1020000090E0DF91CF9108951F931092E80B10920A
:10201000E70B28EE33E040E050E02093E90B3093EB
:10202000EA0B4093EB0B5093EC0B67E872E0709374
:10203000E60B6093E50B85EC99E09093F20B8093AF
:10204000F10B89E09AE09093F40B8093F30B85EC0D
:1020500090E09093F60B8093F50B84EC90E09093D6
:10206000F80B8093F70B80EC90E09093FA0B809341
:10207000F90B81EC90E09093FC0B8093FB0B86ECCA
:1020800090E09093FE0B8093FD0B14E01093FF0BF8
:10209000B3E0B093000CA7E0A093010CF5E0F0933F
:1020A000020CE1E0E093030C1092070C1092060C76
:1020B0002093080C3093090C40930A0C50930B0C9E
:1020C0007093050C6093040C8DE49AE09093110CCE
:1020D0008093100C81E99AE09093130C8093120C7A
:1020E0008DEC90E09093150C8093140C8CEC90E0A8
:1020F0009093170C8093160C88EC90E09093190C39
:102100008093180C89EC90E090931B0C80931A0C30
:102110008EEC90E090931D0C80931C0C10931E0C81
:10212000B0931F0CA093200CF093210CE093220C91
:102130001092260C1092250C2093270C3093280C1B
:102140004093290C50932A0C7093240C6093230C19
:1021500085ED9AE09093300C80932F0C89E19BE001
:102160009093320C8093310C85ED90E09093340C79
:102170008093330C84ED90E09093360C8093350C73
:1021800080ED90E09093380C8093370C81ED90E0D7
:1021900090933A0C8093390C86ED90E090933C0C30
:1021A00080933B0C10933D0CB0933E0CA0933F0CDE
:1021B000F093400CE093410C1092450C1092440CAB
:1021C0002093460C3093470C4093480C5093490C95
:1021D0007093430C6093420C8DE59BE090934F0C01
:1021E00080934E0C81EA9BE09093510C8093500CAD
:1021F00085E391E09093530C8093520C84E391E03B
:102200009093550C8093540C80E391E09093570C7D
:102210008093560C81E391E09093590C8093580C75
:1022200086E391E090935B0C80935A0C10935C0CC6
:10223000B0935D0CA0935E0CF0935F0CE093600C88
:102240001F910895CF93DF930E94380B0E94C80915
:10225000C4E9DDE00E94C7092097E1F30E94940DD4
:10226000F9CF0895CF92DF92EF92FF920F931F93D1
:10227000CF93DF937C016B018A01C0E0D0E00FC0F7
:10228000D6016D916D01D701ED91FC910190F08126
:10229000E02DC7011995C80FD91F01501040011535
:1022A000110571F7CE01DF91CF911F910F91FF9032
:1022B000EF90DF90CF900895EF92FF920F931F93CE
:1022C0008C01DC01ED91FC910190F081E02D6DE03D
:1022D00019957C01D801ED91FC910190F081E02DE0
:1022E000C8016AE019959C012E0D3F1DC9011F917F
:1022F0000F91FF90EF900895CF93DF93DB010D9046
:102300000020E9F71197A61BB70BEC01E881F981D2
:102310000280F381E02DAD011995DF91CF910895F1
:102320000E947C110895EF92FF920F931F937C01FE
:102330000E947C118C01C7010E945C11080F191FBB
:10234000C8011F910F91FF90EF900895EF92FF92B7
:102350000F931F937B018C01611571058105910518
:1023600029F420E030E040E050E00BC00E941F194B
:10237000A80197010E949819AC01CB01DA019C01D8
:10238000AD01B901CA011F910F91FF90EF9008951F
:10239000009729F0BC0180E090E00E942419089584
:1023A000FC011382128287E992E091838083758316
:1023B0006483578346837187608753874287158A72
:1023C000158614861786168621E0248B8FEF9FEFE3
:1023D000938B828B918B808B268B08952F923F92CB
:1023E0004F925F926F927F928F929F92AF92BF9225
:1023F000CF92DF92EF92FF920F931F93DF93CF93D1
:1024000000D00F92CDB7DEB73C017C836B836A01AD
:102410005901FA82E982222433249801241B350BC6
:1024200037FF03C0309521953F4FC5014B815C813B
:10243000841B950B97FF03C0909581959F4F821742
:1024400093075CF481E0282E312CC601CB80DC8020
:102450009C838B83C80185015C018B819C81A816BC
:10246000B90644F4C501AB80BC809C838B83C80152
:1024700086016C012501AB81BC814A1A5B0A780197
:10248000EC18FD08F7FE04C0F094E194F108F39411
:10249000C016D10624F088248A94982C03C0B1E099
:1024A0008B2E912CC20162E070E00E9463198B01B7
:1024B00025C0D301ED91FC912114310441F0048039
:1024C000F581E02DC301B6014B815C8107C004801A
:1024D000F581E02DC3016B817C81A60129813A81C0
:1024E00019950E191F0917FF04C0C80CD91C040D3B
:1024F000151DEB81FC813196FC83EB834B815C8164
:10250000A416B506B4F60F900F900F900F90CF91D0
:10251000DF911F910F91FF90EF90DF90CF90BF90D0
:10252000AF909F908F907F906F905F904F903F9073
:102530002F9008954F925F926F927F928F929F9209
:10254000AF92BF92CF92DF92EF92FF920F931F93C1
:102550006C015B014A0139012801DC01ED91FC911C
:102560000284F385E02D87011995D601ED91FC9148
:10257000A40141505040440D551D0284F385E02DC7
:10258000C601B50193011995D601ED91FC91008426
:10259000F185E02DC601B501A40192011995D6017E
:1025A000ED91FC910894A108B108A60CB71C008419
:1025B000F185E02DC601B501A401920119951F9185
:1025C0000F91FF90EF90DF90CF90BF90AF909F90D2
:1025D0008F907F906F905F904F900895CF92DF9291
:1025E000EF92FF920F931F93DC016B017801ED9145
:1025F000FC918A0101501040020F131F0680F781E1
:10260000E02D960119951F910F91FF90EF90DF90AB
:10261000CF900895CF92DF92EF92FF920F931F9386
:10262000DC016A01C9017801ED91FC9111979B01D0
:1026300021503040280F391F0680F781E02DCD0151
:10264000860119951F910F91FF90EF90DF90CF9029
:1026500008956F927F928F929F92AF92BF92CF9286
:10266000DF92EF92FF920F931F93CF93DF935C0162
:102670003A0169014801EB01C60ED71E0DC0D50114
:10268000ED91FC910084F185E02DC501BE01A3010F
:102690009401870119952196CC15DD0584F3DF910E
:1026A000CF911F910F91FF90EF90DF90CF90BF904F
:1026B000AF909F908F907F906F900895EF92FF92D0
:1026C0000F931F93FC017B01A081B181208531858F
:1026D000028513851E960D90BC91A02D60E070E0E0
:1026E00040E050E0FD0119951F910F91FF90EF9090
:1026F00008952F923F924F925F926F927F928F92A6
:102700009F92AF92BF92CF92DF92EF92FF920F9380
:102710001F93DF93CF93CDB7DEB72F970FB6F89403
:10272000DEBF0FBECDBF5C015E834D8318870F8374
:10273000FA86E986CB86DC0118968D919C911997D3
:10274000681779070CF0A4C01A968D919C911B977D
:10275000481759070CF09CC0EC2DF0E0FF87EE877E
:10276000CF01880F991F8E0F9F1F880F991F860F0B
:10277000971F181619060CF08BC0CF01F3E0880FD5
:10278000991FFA95E1F7840F951F181619060CF09A
:102790007FC085E0289FA00111245A8349832B0123
:1027A0001B011C825C81553011F480E005C0E98179
:1027B000FA81EC5FFD4F84912C863D866D807E8092
:1027C00043011B82C82EDD2480FF1CC0D501ED9182
:1027D000FC91BB85B13049F40480F581E02DC50141
:1027E000B201A3012F81388522C00684F785E02D30
:1027F000C5016C857D85A4012E853F858901EF800B
:10280000F88423C0E985FA852F813885E217F3071C
:10281000E9F0D501ED91FC91BB85B13051F4048014
:10282000F581E02DC501B201A30129853A851995ED
:102830000DC00684F785E02DC5016C857D85A4015A
:102840002E853F858901E984FA841995EB81EF5F34
:10285000EB832E853F85820E931E0894611C711CAC
:10286000E83021F0D594C7948C2DACCF3C813F5FEC
:102870003C834E855F85240E351E0894411C511CF7
:1028800089819A8101969A838983363009F08ACFAB
:102890002F960FB6F894DEBF0FBECDBFCF91DF915C
:1028A0001F910F91FF90EF90DF90CF90BF90AF906E
:1028B0009F908F907F906F905F904F903F902F9060
:1028C0000895CF92EF92FF920F931F93CF93DF93D0
:1028D000EC01262F6A3061F42C8930E003E0220FEE
:1028E000331F0A95E1F78E859F85820F931F37C0AE
:1028F0006D30C9F16C857D854E855F8508891989A4
:10290000EA88FB88CC880E9479132C8986E0289F6E
:10291000B00111248C859D85680F791F7D876C8798
:102920008E89882301F1422F50E08AEF9FEF9C01AE
:10293000429FC001439F900D529F900D1124288506
:102940003985820F931F861797076CF413E0440FA5
:10295000551F1A95E1F78E859F85840F951F9F87D8
:102960008E871D861C8681E090E0DF91CF911F91BC
:102970000F91FF90EF90CF900895FC0175876487C9
:10298000578746870895FC01662309F461E0648B4C
:102990000895FC01738B628B718B608B0895FC0131
:1029A000808591850895FC01828593850895089519
:1029B000DC0158968C915897882329F06EBD0DB490
:1029C00007FEFDCF089530E840E050E070E0832F2F
:1029D00090E0862397235996ED91FC915A9796960D
:1029E0002C919697892B21F08081822B808304C0C3
:1029F00080812095282320835B96ED91FC915C9744
:102A0000808197969C919797892B80835B96ED9117
:102A1000FC915C97908197968C91979780958923EC
:102A2000808336954F5F5F4F4830510581F608959A
:102A30000F931F938C01DC015F96ED91FC919097B1
:102A4000908199968C9199978095892380835D9642
:102A5000ED91FC915E97908198968C918095892359
:102A60008083C8010E94D814D8015D96ED91FC9135
:102A70005E97808198969C91892B80831F910F91FE
:102A800008950F931F938C01DC015F96ED91FC91EB
:102A90009097808199969C919997892B80835D96D8
:102AA000ED91FC915E97908198968C918095892309
:102AB0008083C8010E94D814D8015D96ED91FC91E5
:102AC0005E97808198969C91892B80831F910F91AE
:102AD0000895CF92DF92EF92FF920F931F937C01A4
:102AE000162FC42ED22E6AE20E941815C70160E08C
:102AF0000E944115F70162A5610FC7010E944115AF
:102B0000C70160E00E944115F70162A56D0DC70184
:102B10000E944115C7016BE20E941815C70160E0D1
:102B20000E944115F70163A56C0DC7010E94411574
:102B3000C70160E00E944115F70163A5600FC7015E
:102B40000E944115C7016CE20E9418151F910F9158
:102B5000FF90EF90DF90CF900895FF920F931F9317
:102B6000CF93DF93EC01F22E132F77FD2EC08885D3
:102B70009985681779074CF557FD27C08A859B858D
:102B80004817590714F5262F2F5F042F0F5FCE012A
:102B90000E946915EF8DF8A1808199A5892B80830A
:102BA000ED8DFE8D908188A5809589238083CE014F
:102BB000612F0E94D814CE016F2D0E94D814ED8D84
:102BC000FE8D808198A5892B8083DF91CF911F9105
:102BD0000F91FF900895DF92EF92FF920F931F9352
:102BE000CF93DF93EC01FB017901D02E8885998585
:102BF00068177907D4F52A853B8542175307ACF54A
:102C0000C701840F951F281739071CF47901E41AAE
:102C1000F50A042F01500E0DCE016E2F2E2F0E94AB
:102C20006915EF8DF8A1808199A5892B8083ED8DA1
:102C3000FE8D908188A580958923808308C0CE0170
:102C4000612F0E94D814CE016D2D0E94D8140894D3
:102C5000E108F1088FEFE8168FEFF80681F7ED8DA8
:102C6000FE8D808198A5892B8083DF91CF911F9164
:102C70000F91FF90EF90DF900895DF92EF92FF9217
:102C80000F931F93CF93DF93EC01FA017901D02EBC
:102C90002885398562177307D4F58A859B8548177F
:102CA0005907ACF5C701860F971F281739071CF481
:102CB0007901E61AF70A262F21502E0DCE014E2F4C
:102CC0000E2F0E946915EF8DF8A1808199A5892B9F
:102CD0008083ED8DFE8D908188A5809589238083EA
:102CE00008C0CE01612F0E94D814CE016D2D0E9424
:102CF000D8140894E108F1088FEFE8168FEFF80672
:102D000081F7ED8DFE8D808198A5892B8083DF91E1
:102D1000CF911F910F91FF90EF90DF900895EF9268
:102D2000FF920F931F93FC017B01A081B18120854D
:102D30003185028513851E960D90BC91A02D60E013
:102D400070E040E050E0FD0119951F910F91FF9058
:102D5000EF900895AF92BF92CF92DF92EF92FF92E1
:102D60000F931F93CF93DF936C015901E801DC01AE
:102D700018962D913C911997621773070CF057C064
:102D80001A96ED91FC911B974E175F070CF04FC000
:102D9000C501860F971F281739071CF45901A61A79
:102DA000B70ACE01840F951FE817F9071CF4EF014D
:102DB000C41BD50B262F21502A0D042F01500C0FB8
:102DC000C6010E946915D6015F96ED91FC9190971E
:102DD000808199969C919997892B80835D96ED913E
:102DE000FC915E97908198968C9180958923808341
:102DF0008E010EC0C6016F2D0E94D814C6016E2D23
:102E00000E94D81421971C161D06A4F301501040EF
:102E10001016110614F4E501F6CFD6015D96ED917A
:102E2000FC915E97808198969C91892B8083DF919D
:102E3000CF911F910F91FF90EF90DF90CF90BF90B7
:102E4000AF900895662311F460E201C061E20E9430
:102E500018150895AF92BF92CF92DF92EF92FF9232
:102E60000F931F93CF93DF935C01FB01EB0121963E
:102E7000D49031C08E010F5F1F4FFE016491C501D8
:102E80000E94181578010894E11CF11CF801C49007
:102E90000C2D0F77E701102F08C0FE012196E49159
:102EA000C5016E2F0E94411511501123B1F7E701A2
:102EB000C00FD11DC7FE0EC0FE018491682F70E0C7
:102EC0006F3F710511F464EF71E0219680E090E0AE
:102ED0000E94DF0ADA94DD2069F6DF91CF911F911D
:102EE0000F91FF90EF90DF90CF90BF90AF9008953B
:102EF0000F931F93CF93DF93EC018B011BA61AA6B0
:102F00008AA161E00E949A0B89A161E00E949A0B5C
:102F1000E9A14E2F50E0FA01EE5CFE4FE491F0E0A3
:102F2000EE0FFF1FE250FF4F859194919E8F8D8F82
:102F3000EAA12E2F30E0F901EE5CFE4FE491F0E0C3
:102F4000EE0FFF1FE250FF4F8591949198A38F8F52
:102F500048585E4FFA01849188A728583E4FF901DE
:102F6000849189A7888D882361F00E94A31880E04E
:102F70000E94921881E00E94841880E00E948D18BF
:102F80003DC08DA161E00E949A0B8CA161E00E947E
:102F90009A0BEDA14E2F50E0FA01EE5CFE4FE4914A
:102FA000F0E0EE0FFF1FE250FF4FA591B491BC8FF0
:102FB000AB8FECA12E2F30E0F901EE5CFE4FE491D7
:102FC000F0E0EE0FFF1FE250FF4F859194919A8F32
:102FD000898F48585E4FFA0194919FA328583E4F1D
:102FE000F90184918EA38C91909598239C93E98DFF
:102FF000FA8D90818EA1809589238083ED8DFE8D41
:10300000908188A58095892380838BA1882309F1ED
:1030100061E00E949A0B8BA161E00E944D0C64EF6D
:1030200071E080E090E00E94DF0A8BA160E00E94E6
:103030004D0C64EF71E080E090E00E94DF0A8BA10C
:1030400061E00E944D0C64EF71E080E090E00E942E
:10305000DF0A0115110521F0CE01B8010E942A17DF
:10306000DF91CF911F910F9108951F93CF93DF931D
:10307000EC01162F6FEF76E00E947817112351F4C0
:10308000CE016AE377E00E942A1782E08AA781E0F6
:103090008BA705C0CE0167E477E00E942A17CE0116
:1030A00064E577E00E942A17123041F4CE0166E30E
:1030B0000E941815CE0160EC0E9441151F8BDF9114
:1030C000CF911F910895DF92EF92FF920F931F937C
:1030D0008C01F62EE42ED22E60E870E040EA50E03B
:1030E0000E94D0118FEA92E0F80191838083F1A2CF
:1030F000E2A2D3A281E0808F15A214A21F910F91AA
:10310000FF90EF90DF900895882319F48CB58062CA
:1031100002C08CB58F7D8CBD08959CB5937F982B94
:103120009CBD08952CB5382F33702C7F322B3CBDBD
:103130002DB590E0959587959595879581702E7F13
:10314000822B8DBD089584E361E00E949A0B83E396
:1031500061E00E949A0B85E361E00E949A0B84E390
:1031600060E00E944D0C83E360E00E944D0C85E31B
:1031700061E00E944D0C8CB580618CBD8CB5806483
:103180008CBD0895AF92BF92CF92DF92EF92FF92E3
:103190000F931F93CF93DF93EC01A880B980CA806F
:1031A000DB80A114B104C104D10441F484E2A82E4F
:1031B00089EDB82E8BE5C82E87E0D82EC601B50163
:1031C0002DE133EF41E050E00E94981927EA31E405
:1031D00040E050E00E9430197B018C01C601B5012E
:1031E0002DE133EF41E050E00E949819CA01B90186
:1031F0002CEE34EF4FEF5FEF0E9430196E0D7F1D04
:10320000801F911F97FF04C061507040804090481C
:10321000688379838A839B839B01AC015F77B901C3
:10322000CA01DF91CF911F910F91FF90EF90DF9036
:10323000CF90BF90AF9008950E94C218089588E77C
:1032400092E00E94C2180895609378027093790208
:1032500080937A0290937B020895F8940C94B919A4
:10326000629FD001739FF001829FE00DF11D649F6A
:10327000E00DF11D929FF00D839FF00D749FF00DF6
:10328000659FF00D9927729FB00DE11DF91F639F97
:10329000B00DE11DF91FBD01CF0111240895AA1B36
:1032A000BB1B51E107C0AA1FBB1FA617B70710F031
:1032B000A61BB70B881F991F5A95A9F78095909563
:1032C000BC01CD01089597FB092E07260AD077FD92
:1032D00004D0E5DF06D000201AF4709561957F4F89
:1032E0000895F6F7909581959F4F0895A1E21A2EC3
:1032F000AA1BBB1BFD010DC0AA1FBB1FEE1FFF1F9A
:10330000A217B307E407F50720F0A21BB30BE40BE9
:10331000F50B661F771F881F991F1A9469F7609530
:103320007095809590959B01AC01BD01CF010895EA
:1033300097FB092E05260ED057FD04D0D7DF0AD003
:10334000001C38F450954095309521953F4F4F4FD4
:103350005F4F0895F6F790958095709561957F4F32
:103360008F4F9F4F0895EE0FFF1F0590F491E02DB2
:063370001994F894FFCF50
:10337600504155534500576F756C6420796F752021
:103386006C696B6520746F2E2E2E20004E6577209B
:103396006C6576656C00506C617920616761696E59
:1033A60000594F552057494E2100460057454C437A
:1033B6004F4D450A00544F200A004D415A2D4F2DBE
:1033C60052414D410043686F6F73652064696666BC
:1033D6006963756C74790045415359004D454449FC
:1033E600554D004841524400010000000100010013
:1033F60005000100000000CB0F32115F0F900F7027
:103406000FB90F00000000611432113111EE11EEF8
:10341600120A139A1229135E13D7140000000061D2
:10342600143211AD15EE11EB153D169A12AA168F30
:043436001622170043
:00000001FF
